{
  "_format": "hh-sol-artifact-1",
  "contractName": "Auction",
  "sourceName": "contracts/Auction.sol",
  "abi": [
    {
      "inputs": [
        {
          "internalType": "uint256",
          "name": "_biddingTime",
          "type": "uint256"
        }
      ],
      "stateMutability": "nonpayable",
      "type": "constructor"
    },
    {
      "inputs": [],
      "name": "bid",
      "outputs": [],
      "stateMutability": "payable",
      "type": "function"
    },
    {
      "inputs": [
        {
          "internalType": "uint256",
          "name": "",
          "type": "uint256"
        }
      ],
      "name": "bidders",
      "outputs": [
        {
          "internalType": "address",
          "name": "",
          "type": "address"
        }
      ],
      "stateMutability": "view",
      "type": "function"
    },
    {
      "inputs": [],
      "name": "endAuction",
      "outputs": [],
      "stateMutability": "nonpayable",
      "type": "function"
    },
    {
      "inputs": [],
      "name": "endTime",
      "outputs": [
        {
          "internalType": "uint256",
          "name": "",
          "type": "uint256"
        }
      ],
      "stateMutability": "view",
      "type": "function"
    },
    {
      "inputs": [],
      "name": "ended",
      "outputs": [
        {
          "internalType": "bool",
          "name": "",
          "type": "bool"
        }
      ],
      "stateMutability": "view",
      "type": "function"
    },
    {
      "inputs": [],
      "name": "getWinner",
      "outputs": [
        {
          "internalType": "address",
          "name": "",
          "type": "address"
        }
      ],
      "stateMutability": "view",
      "type": "function"
    },
    {
      "inputs": [],
      "name": "highestBid",
      "outputs": [
        {
          "internalType": "uint256",
          "name": "",
          "type": "uint256"
        }
      ],
      "stateMutability": "view",
      "type": "function"
    },
    {
      "inputs": [],
      "name": "owner",
      "outputs": [
        {
          "internalType": "address",
          "name": "",
          "type": "address"
        }
      ],
      "stateMutability": "view",
      "type": "function"
    },
    {
      "inputs": [],
      "name": "winner",
      "outputs": [
        {
          "internalType": "address",
          "name": "",
          "type": "address"
        }
      ],
      "stateMutability": "view",
      "type": "function"
    }
  ],
  "bytecode": "0x60806040523480156200001157600080fd5b5060405162000ce838038062000ce88339818101604052810190620000379190620000d2565b336000806101000a81548173ffffffffffffffffffffffffffffffffffffffff021916908373ffffffffffffffffffffffffffffffffffffffff160217905550804262000085919062000133565b600481905550506200016e565b600080fd5b6000819050919050565b620000ac8162000097565b8114620000b857600080fd5b50565b600081519050620000cc81620000a1565b92915050565b600060208284031215620000eb57620000ea62000092565b5b6000620000fb84828501620000bb565b91505092915050565b7f4e487b7100000000000000000000000000000000000000000000000000000000600052601160045260246000fd5b6000620001408262000097565b91506200014d8362000097565b925082820190508082111562000168576200016762000104565b5b92915050565b610b6a806200017e6000396000f3fe6080604052600436106100865760003560e01c80638e7ea5b2116100595780638e7ea5b214610116578063cff29dfd14610141578063d57bde791461017e578063dfbf53ae146101a9578063fe67a54b146101d457610086565b806312fa6feb1461008b5780631998aeef146100b65780633197cbb6146100c05780638da5cb5b146100eb575b600080fd5b34801561009757600080fd5b506100a06101eb565b6040516100ad9190610700565b60405180910390f35b6100be6101fe565b005b3480156100cc57600080fd5b506100d5610437565b6040516100e29190610734565b60405180910390f35b3480156100f757600080fd5b5061010061043d565b60405161010d9190610790565b60405180910390f35b34801561012257600080fd5b5061012b610461565b6040516101389190610790565b60405180910390f35b34801561014d57600080fd5b50610168600480360381019061016391906107dc565b61048b565b6040516101759190610790565b60405180910390f35b34801561018a57600080fd5b506101936104ca565b6040516101a09190610734565b60405180910390f35b3480156101b557600080fd5b506101be6104d0565b6040516101cb9190610790565b60405180910390f35b3480156101e057600080fd5b506101e96104f6565b005b600560009054906101000a900460ff1681565b6003543411610242576040517f08c379a000000000000000000000000000000000000000000000000000000000815260040161023990610866565b60405180910390fd5b60008054906101000a900473ffffffffffffffffffffffffffffffffffffffff1673ffffffffffffffffffffffffffffffffffffffff163373ffffffffffffffffffffffffffffffffffffffff16036102d0576040517f08c379a00000000000000000000000000000000000000000000000000000000081526004016102c7906108d2565b60405180910390fd5b6004544210610314576040517f08c379a000000000000000000000000000000000000000000000000000000000815260040161030b9061093e565b60405180910390fd5b60006003541461038a57600160009054906101000a900473ffffffffffffffffffffffffffffffffffffffff1673ffffffffffffffffffffffffffffffffffffffff166108fc6003549081150290604051600060405180830381858888f19350505050158015610388573d6000803e3d6000fd5b505b33600160006101000a81548173ffffffffffffffffffffffffffffffffffffffff021916908373ffffffffffffffffffffffffffffffffffffffff160217905550346003819055506002339080600181540180825580915050600190039060005260206000200160009091909190916101000a81548173ffffffffffffffffffffffffffffffffffffffff021916908373ffffffffffffffffffffffffffffffffffffffff160217905550565b60045481565b60008054906101000a900473ffffffffffffffffffffffffffffffffffffffff1681565b6000600160009054906101000a900473ffffffffffffffffffffffffffffffffffffffff16905090565b6002818154811061049b57600080fd5b906000526020600020016000915054906101000a900473ffffffffffffffffffffffffffffffffffffffff1681565b60035481565b600160009054906101000a900473ffffffffffffffffffffffffffffffffffffffff1681565b60008054906101000a900473ffffffffffffffffffffffffffffffffffffffff1673ffffffffffffffffffffffffffffffffffffffff163373ffffffffffffffffffffffffffffffffffffffff1614610584576040517f08c379a000000000000000000000000000000000000000000000000000000000815260040161057b906109d0565b60405180910390fd5b6004544210156105c9576040517f08c379a00000000000000000000000000000000000000000000000000000000081526004016105c090610a3c565b60405180910390fd5b600560009054906101000a900460ff1615610619576040517f08c379a000000000000000000000000000000000000000000000000000000000815260040161061090610aa8565b60405180910390fd5b600060028054905011610661576040517f08c379a000000000000000000000000000000000000000000000000000000000815260040161065890610b14565b60405180910390fd5b6001600560006101000a81548160ff02191690831515021790555060008054906101000a900473ffffffffffffffffffffffffffffffffffffffff1673ffffffffffffffffffffffffffffffffffffffff166108fc479081150290604051600060405180830381858888f193505050501580156106e2573d6000803e3d6000fd5b50565b60008115159050919050565b6106fa816106e5565b82525050565b600060208201905061071560008301846106f1565b92915050565b6000819050919050565b61072e8161071b565b82525050565b60006020820190506107496000830184610725565b92915050565b600073ffffffffffffffffffffffffffffffffffffffff82169050919050565b600061077a8261074f565b9050919050565b61078a8161076f565b82525050565b60006020820190506107a56000830184610781565b92915050565b600080fd5b6107b98161071b565b81146107c457600080fd5b50565b6000813590506107d6816107b0565b92915050565b6000602082840312156107f2576107f16107ab565b5b6000610800848285016107c7565b91505092915050565b600082825260208201905092915050565b7f426964206e6f7420656e6f756768000000000000000000000000000000000000600082015250565b6000610850600e83610809565b915061085b8261081a565b602082019050919050565b6000602082019050818103600083015261087f81610843565b9050919050565b7f4f776e65722063616e2774206269640000000000000000000000000000000000600082015250565b60006108bc600f83610809565b91506108c782610886565b602082019050919050565b600060208201905081810360008301526108eb816108af565b9050919050565b7f41756374696f6e2068617320656e646564000000000000000000000000000000600082015250565b6000610928601183610809565b9150610933826108f2565b602082019050919050565b600060208201905081810360008301526109578161091b565b9050919050565b7f4f6e6c79206f776e65722063616e2063616c6c20746869732066756e6374696f60008201527f6e00000000000000000000000000000000000000000000000000000000000000602082015250565b60006109ba602183610809565b91506109c58261095e565b604082019050919050565b600060208201905081810360008301526109e9816109ad565b9050919050565b7f41756374696f6e20686173206e6f7420656e6465642079657400000000000000600082015250565b6000610a26601983610809565b9150610a31826109f0565b602082019050919050565b60006020820190508181036000830152610a5581610a19565b9050919050565b7f41756374696f6e20616c726561647920656e6465640000000000000000000000600082015250565b6000610a92601583610809565b9150610a9d82610a5c565b602082019050919050565b60006020820190508181036000830152610ac181610a85565b9050919050565b7f4e6f206f6e652070617274696369706174656421000000000000000000000000600082015250565b6000610afe601483610809565b9150610b0982610ac8565b602082019050919050565b60006020820190508181036000830152610b2d81610af1565b905091905056fea2646970667358221220e099828b3f331e456ed70e3e70e1c8af6382e2e97e5e4c20759f23b9b1a43fb164736f6c63430008180033",
  "linkReferences": {},
  "deployedLinkReferences": {}
}