{
  "_format": "hh-sol-artifact-1",
  "contractName": "Auction",
  "sourceName": "contracts/Auction.sol",
  "abi": [
    {
      "inputs": [],
      "stateMutability": "nonpayable",
      "type": "constructor"
    },
    {
      "inputs": [],
      "name": "bid",
      "outputs": [],
      "stateMutability": "payable",
      "type": "function"
    },
    {
      "inputs": [],
      "name": "endAuction",
      "outputs": [],
      "stateMutability": "nonpayable",
      "type": "function"
    },
    {
      "inputs": [],
      "name": "endTime",
      "outputs": [
        {
          "internalType": "uint256",
          "name": "",
          "type": "uint256"
        }
      ],
      "stateMutability": "view",
      "type": "function"
    },
    {
      "inputs": [],
      "name": "ended",
      "outputs": [
        {
          "internalType": "bool",
          "name": "",
          "type": "bool"
        }
      ],
      "stateMutability": "view",
      "type": "function"
    },
    {
      "inputs": [],
      "name": "getWinner",
      "outputs": [
        {
          "internalType": "address",
          "name": "",
          "type": "address"
        }
      ],
      "stateMutability": "view",
      "type": "function"
    },
    {
      "inputs": [],
      "name": "highestBid",
      "outputs": [
        {
          "internalType": "uint256",
          "name": "",
          "type": "uint256"
        }
      ],
      "stateMutability": "view",
      "type": "function"
    },
    {
      "inputs": [],
      "name": "owner",
      "outputs": [
        {
          "internalType": "address",
          "name": "",
          "type": "address"
        }
      ],
      "stateMutability": "view",
      "type": "function"
    },
    {
      "inputs": [],
      "name": "winner",
      "outputs": [
        {
          "internalType": "address",
          "name": "",
          "type": "address"
        }
      ],
      "stateMutability": "view",
      "type": "function"
    }
  ],
  "bytecode": "0x608060405234801561001057600080fd5b50336000806101000a81548173ffffffffffffffffffffffffffffffffffffffff021916908373ffffffffffffffffffffffffffffffffffffffff16021790555061096e806100606000396000f3fe60806040526004361061007b5760003560e01c80638e7ea5b21161004e5780638e7ea5b21461010b578063d57bde7914610136578063dfbf53ae14610161578063fe67a54b1461018c5761007b565b806312fa6feb146100805780631998aeef146100ab5780633197cbb6146100b55780638da5cb5b146100e0575b600080fd5b34801561008c57600080fd5b506100956101a3565b6040516100a291906105ce565b60405180910390f35b6100b36101b6565b005b3480156100c157600080fd5b506100ca61038c565b6040516100d79190610602565b60405180910390f35b3480156100ec57600080fd5b506100f5610392565b604051610102919061065e565b60405180910390f35b34801561011757600080fd5b506101206103b6565b60405161012d919061065e565b60405180910390f35b34801561014257600080fd5b5061014b6103e0565b6040516101589190610602565b60405180910390f35b34801561016d57600080fd5b506101766103e6565b604051610183919061065e565b60405180910390f35b34801561019857600080fd5b506101a161040c565b005b600460009054906101000a900460ff1681565b60025434116101fa576040517f08c379a00000000000000000000000000000000000000000000000000000000081526004016101f1906106d6565b60405180910390fd5b60008054906101000a900473ffffffffffffffffffffffffffffffffffffffff1673ffffffffffffffffffffffffffffffffffffffff163373ffffffffffffffffffffffffffffffffffffffff1603610288576040517f08c379a000000000000000000000000000000000000000000000000000000000815260040161027f90610742565b60405180910390fd5b60035442106102cc576040517f08c379a00000000000000000000000000000000000000000000000000000000081526004016102c3906107ae565b60405180910390fd5b60006002541461034257600160009054906101000a900473ffffffffffffffffffffffffffffffffffffffff1673ffffffffffffffffffffffffffffffffffffffff166108fc6002549081150290604051600060405180830381858888f19350505050158015610340573d6000803e3d6000fd5b505b33600160006101000a81548173ffffffffffffffffffffffffffffffffffffffff021916908373ffffffffffffffffffffffffffffffffffffffff16021790555034600281905550565b60035481565b60008054906101000a900473ffffffffffffffffffffffffffffffffffffffff1681565b6000600160009054906101000a900473ffffffffffffffffffffffffffffffffffffffff16905090565b60025481565b600160009054906101000a900473ffffffffffffffffffffffffffffffffffffffff1681565b60008054906101000a900473ffffffffffffffffffffffffffffffffffffffff1673ffffffffffffffffffffffffffffffffffffffff163373ffffffffffffffffffffffffffffffffffffffff161461049a576040517f08c379a000000000000000000000000000000000000000000000000000000000815260040161049190610840565b60405180910390fd5b6003544210156104df576040517f08c379a00000000000000000000000000000000000000000000000000000000081526004016104d6906108ac565b60405180910390fd5b600460009054906101000a900460ff161561052f576040517f08c379a000000000000000000000000000000000000000000000000000000000815260040161052690610918565b60405180910390fd5b6001600460006101000a81548160ff02191690831515021790555060008054906101000a900473ffffffffffffffffffffffffffffffffffffffff1673ffffffffffffffffffffffffffffffffffffffff166108fc479081150290604051600060405180830381858888f193505050501580156105b0573d6000803e3d6000fd5b50565b60008115159050919050565b6105c8816105b3565b82525050565b60006020820190506105e360008301846105bf565b92915050565b6000819050919050565b6105fc816105e9565b82525050565b600060208201905061061760008301846105f3565b92915050565b600073ffffffffffffffffffffffffffffffffffffffff82169050919050565b60006106488261061d565b9050919050565b6106588161063d565b82525050565b6000602082019050610673600083018461064f565b92915050565b600082825260208201905092915050565b7f4d696e696d756d206269642069732024607b686967686573744269647d600000600082015250565b60006106c0601e83610679565b91506106cb8261068a565b602082019050919050565b600060208201905081810360008301526106ef816106b3565b9050919050565b7f4f776e65722063616e2774206269640000000000000000000000000000000000600082015250565b600061072c600f83610679565b9150610737826106f6565b602082019050919050565b6000602082019050818103600083015261075b8161071f565b9050919050565b7f41756374696f6e2068617320656e646564000000000000000000000000000000600082015250565b6000610798601183610679565b91506107a382610762565b602082019050919050565b600060208201905081810360008301526107c78161078b565b9050919050565b7f4f6e6c79206f776e65722063616e2063616c6c20746869732066756e6374696f60008201527f6e00000000000000000000000000000000000000000000000000000000000000602082015250565b600061082a602183610679565b9150610835826107ce565b604082019050919050565b600060208201905081810360008301526108598161081d565b9050919050565b7f41756374696f6e20686173206e6f7420656e6465642079657400000000000000600082015250565b6000610896601983610679565b91506108a182610860565b602082019050919050565b600060208201905081810360008301526108c581610889565b9050919050565b7f41756374696f6e20616c726561647920656e6465640000000000000000000000600082015250565b6000610902601583610679565b915061090d826108cc565b602082019050919050565b60006020820190508181036000830152610931816108f5565b905091905056fea2646970667358221220966a7ab0995a1f35067a1804cd17ef69704902dc11fb230b99b76dc012ca3c9664736f6c63430008180033",
  "linkReferences": {},
  "deployedLinkReferences": {}
}