{
  "_format": "hh-sol-artifact-1",
  "contractName": "Auction",
  "sourceName": "contracts/Auction.sol",
  "abi": [
    {
      "inputs": [
        {
          "internalType": "uint256",
          "name": "_biddingTime",
          "type": "uint256"
        },
        {
          "internalType": "address",
          "name": "_owner",
          "type": "address"
        }
      ],
      "stateMutability": "nonpayable",
      "type": "constructor"
    },
    {
      "anonymous": false,
      "inputs": [
        {
          "indexed": false,
          "internalType": "address",
          "name": "winner",
          "type": "address"
        },
        {
          "indexed": false,
          "internalType": "uint256",
          "name": "amount",
          "type": "uint256"
        }
      ],
      "name": "AuctionEnded",
      "type": "event"
    },
    {
      "anonymous": false,
      "inputs": [
        {
          "indexed": true,
          "internalType": "address",
          "name": "bidder",
          "type": "address"
        },
        {
          "indexed": false,
          "internalType": "uint256",
          "name": "amount",
          "type": "uint256"
        }
      ],
      "name": "NewBid",
      "type": "event"
    },
    {
      "inputs": [],
      "name": "bid",
      "outputs": [],
      "stateMutability": "payable",
      "type": "function"
    },
    {
      "inputs": [
        {
          "internalType": "uint256",
          "name": "",
          "type": "uint256"
        }
      ],
      "name": "bidders",
      "outputs": [
        {
          "internalType": "address",
          "name": "",
          "type": "address"
        }
      ],
      "stateMutability": "view",
      "type": "function"
    },
    {
      "inputs": [
        {
          "internalType": "address",
          "name": "",
          "type": "address"
        }
      ],
      "name": "bids",
      "outputs": [
        {
          "internalType": "uint256",
          "name": "",
          "type": "uint256"
        }
      ],
      "stateMutability": "view",
      "type": "function"
    },
    {
      "inputs": [],
      "name": "endAuction",
      "outputs": [],
      "stateMutability": "payable",
      "type": "function"
    },
    {
      "inputs": [],
      "name": "endTime",
      "outputs": [
        {
          "internalType": "uint256",
          "name": "",
          "type": "uint256"
        }
      ],
      "stateMutability": "view",
      "type": "function"
    },
    {
      "inputs": [],
      "name": "ended",
      "outputs": [
        {
          "internalType": "bool",
          "name": "",
          "type": "bool"
        }
      ],
      "stateMutability": "view",
      "type": "function"
    },
    {
      "inputs": [],
      "name": "getBidders",
      "outputs": [
        {
          "internalType": "address[]",
          "name": "",
          "type": "address[]"
        }
      ],
      "stateMutability": "view",
      "type": "function"
    },
    {
      "inputs": [],
      "name": "getBounce",
      "outputs": [
        {
          "internalType": "uint256",
          "name": "",
          "type": "uint256"
        }
      ],
      "stateMutability": "view",
      "type": "function"
    },
    {
      "inputs": [],
      "name": "getLast",
      "outputs": [
        {
          "internalType": "address",
          "name": "",
          "type": "address"
        }
      ],
      "stateMutability": "view",
      "type": "function"
    },
    {
      "inputs": [],
      "name": "getLastBidder",
      "outputs": [
        {
          "internalType": "address",
          "name": "",
          "type": "address"
        }
      ],
      "stateMutability": "view",
      "type": "function"
    },
    {
      "inputs": [],
      "name": "getOwner",
      "outputs": [
        {
          "internalType": "address",
          "name": "",
          "type": "address"
        }
      ],
      "stateMutability": "view",
      "type": "function"
    },
    {
      "inputs": [],
      "name": "last",
      "outputs": [
        {
          "internalType": "address",
          "name": "",
          "type": "address"
        }
      ],
      "stateMutability": "view",
      "type": "function"
    },
    {
      "inputs": [],
      "name": "lastBidder",
      "outputs": [
        {
          "internalType": "address",
          "name": "",
          "type": "address"
        }
      ],
      "stateMutability": "view",
      "type": "function"
    },
    {
      "inputs": [],
      "name": "owner",
      "outputs": [
        {
          "internalType": "address",
          "name": "",
          "type": "address"
        }
      ],
      "stateMutability": "view",
      "type": "function"
    }
  ],
  "bytecode": "0x60806040523480156200001157600080fd5b506040516200126138038062001261833981810160405281019062000037919062000138565b806000806101000a81548173ffffffffffffffffffffffffffffffffffffffff021916908373ffffffffffffffffffffffffffffffffffffffff1602179055508142620000859190620001ae565b6004819055505050620001e9565b600080fd5b6000819050919050565b620000ad8162000098565b8114620000b957600080fd5b50565b600081519050620000cd81620000a2565b92915050565b600073ffffffffffffffffffffffffffffffffffffffff82169050919050565b60006200010082620000d3565b9050919050565b6200011281620000f3565b81146200011e57600080fd5b50565b600081519050620001328162000107565b92915050565b6000806040838503121562000152576200015162000093565b5b60006200016285828601620000bc565b9250506020620001758582860162000121565b9150509250929050565b7f4e487b7100000000000000000000000000000000000000000000000000000000600052601160045260246000fd5b6000620001bb8262000098565b9150620001c88362000098565b9250828201905080821115620001e357620001e26200017f565b5b92915050565b61106880620001f96000396000f3fe6080604052600436106100dd5760003560e01c80638547af301161007f5780639e176884116100595780639e17688414610281578063cb6632ef146102ac578063cff29dfd146102d7578063fe67a54b14610314576100dd565b80638547af3014610200578063893d20e81461022b5780638da5cb5b14610256576100dd565b80633197cbb6116100bb5780633197cbb61461014257806347799da81461016d5780634d6228311461019857806362ea82db146101c3576100dd565b80630fbe333a146100e257806312fa6feb1461010d5780631998aeef14610138575b600080fd5b3480156100ee57600080fd5b506100f761031e565b6040516101049190610b37565b60405180910390f35b34801561011957600080fd5b50610122610348565b60405161012f9190610b6d565b60405180910390f35b61014061035b565b005b34801561014e57600080fd5b50610157610695565b6040516101649190610ba1565b60405180910390f35b34801561017957600080fd5b5061018261069b565b60405161018f9190610b37565b60405180910390f35b3480156101a457600080fd5b506101ad6106c1565b6040516101ba9190610b37565b60405180910390f35b3480156101cf57600080fd5b506101ea60048036038101906101e59190610bed565b6106eb565b6040516101f79190610ba1565b60405180910390f35b34801561020c57600080fd5b50610215610703565b6040516102229190610b37565b60405180910390f35b34801561023757600080fd5b50610240610729565b60405161024d9190610b37565b60405180910390f35b34801561026257600080fd5b5061026b610752565b6040516102789190610b37565b60405180910390f35b34801561028d57600080fd5b50610296610776565b6040516102a39190610ba1565b60405180910390f35b3480156102b857600080fd5b506102c161077e565b6040516102ce9190610cd8565b60405180910390f35b3480156102e357600080fd5b506102fe60048036038101906102f99190610d26565b61080c565b60405161030b9190610b37565b60405180910390f35b61031c61084b565b005b6000600560019054906101000a900473ffffffffffffffffffffffffffffffffffffffff16905090565b600560009054906101000a900460ff1681565b600454421061039f576040517f08c379a000000000000000000000000000000000000000000000000000000000815260040161039690610db0565b60405180910390fd5b600060038054905011156104e157600560019054906101000a900473ffffffffffffffffffffffffffffffffffffffff16600160006101000a81548173ffffffffffffffffffffffffffffffffffffffff021916908373ffffffffffffffffffffffffffffffffffffffff160217905550600060026000600160009054906101000a900473ffffffffffffffffffffffffffffffffffffffff1673ffffffffffffffffffffffffffffffffffffffff1673ffffffffffffffffffffffffffffffffffffffff168152602001908152602001600020549050600160009054906101000a900473ffffffffffffffffffffffffffffffffffffffff1673ffffffffffffffffffffffffffffffffffffffff166108fc829081150290604051600060405180830381858888f193505050501580156104de573d6000803e3d6000fd5b50505b6000600260003373ffffffffffffffffffffffffffffffffffffffff1673ffffffffffffffffffffffffffffffffffffffff168152602001908152602001600020540361058c576003339080600181540180825580915050600190039060005260206000200160009091909190916101000a81548173ffffffffffffffffffffffffffffffffffffffff021916908373ffffffffffffffffffffffffffffffffffffffff1602179055505b34600260003373ffffffffffffffffffffffffffffffffffffffff1673ffffffffffffffffffffffffffffffffffffffff16815260200190815260200160002060008282546105db9190610dff565b9250508190555033600560016101000a81548173ffffffffffffffffffffffffffffffffffffffff021916908373ffffffffffffffffffffffffffffffffffffffff160217905550600560019054906101000a900473ffffffffffffffffffffffffffffffffffffffff1673ffffffffffffffffffffffffffffffffffffffff167fdd0b6c6a77960e2066c96171b4d7ac9e8b4c184011f38544afa36a5bb63ec59f3460405161068b9190610ba1565b60405180910390a2565b60045481565b600160009054906101000a900473ffffffffffffffffffffffffffffffffffffffff1681565b6000600160009054906101000a900473ffffffffffffffffffffffffffffffffffffffff16905090565b60026020528060005260406000206000915090505481565b600560019054906101000a900473ffffffffffffffffffffffffffffffffffffffff1681565b60008060009054906101000a900473ffffffffffffffffffffffffffffffffffffffff16905090565b60008054906101000a900473ffffffffffffffffffffffffffffffffffffffff1681565b600047905090565b6060600380548060200260200160405190810160405280929190818152602001828054801561080257602002820191906000526020600020905b8160009054906101000a900473ffffffffffffffffffffffffffffffffffffffff1673ffffffffffffffffffffffffffffffffffffffff16815260200190600101908083116107b8575b5050505050905090565b6003818154811061081c57600080fd5b906000526020600020016000915054906101000a900473ffffffffffffffffffffffffffffffffffffffff1681565b60008054906101000a900473ffffffffffffffffffffffffffffffffffffffff1673ffffffffffffffffffffffffffffffffffffffff163373ffffffffffffffffffffffffffffffffffffffff16146108d9576040517f08c379a00000000000000000000000000000000000000000000000000000000081526004016108d090610ea5565b60405180910390fd5b60045442101561091e576040517f08c379a000000000000000000000000000000000000000000000000000000000815260040161091590610f11565b60405180910390fd5b600560009054906101000a900460ff161561096e576040517f08c379a000000000000000000000000000000000000000000000000000000000815260040161096590610f7d565b60405180910390fd5b6000600380549050116109b6576040517f08c379a00000000000000000000000000000000000000000000000000000000081526004016109ad90610fe9565b60405180910390fd5b6001600560006101000a81548160ff02191690831515021790555060008054906101000a900473ffffffffffffffffffffffffffffffffffffffff1673ffffffffffffffffffffffffffffffffffffffff166108fc479081150290604051600060405180830381858888f19350505050158015610a37573d6000803e3d6000fd5b507fdaec4582d5d9595688c8c98545fdd1c696d41c6aeaeb636737e84ed2f5c00eda600560019054906101000a900473ffffffffffffffffffffffffffffffffffffffff1660026000600560019054906101000a900473ffffffffffffffffffffffffffffffffffffffff1673ffffffffffffffffffffffffffffffffffffffff1673ffffffffffffffffffffffffffffffffffffffff16815260200190815260200160002054604051610aec929190611009565b60405180910390a1565b600073ffffffffffffffffffffffffffffffffffffffff82169050919050565b6000610b2182610af6565b9050919050565b610b3181610b16565b82525050565b6000602082019050610b4c6000830184610b28565b92915050565b60008115159050919050565b610b6781610b52565b82525050565b6000602082019050610b826000830184610b5e565b92915050565b6000819050919050565b610b9b81610b88565b82525050565b6000602082019050610bb66000830184610b92565b92915050565b600080fd5b610bca81610b16565b8114610bd557600080fd5b50565b600081359050610be781610bc1565b92915050565b600060208284031215610c0357610c02610bbc565b5b6000610c1184828501610bd8565b91505092915050565b600081519050919050565b600082825260208201905092915050565b6000819050602082019050919050565b610c4f81610b16565b82525050565b6000610c618383610c46565b60208301905092915050565b6000602082019050919050565b6000610c8582610c1a565b610c8f8185610c25565b9350610c9a83610c36565b8060005b83811015610ccb578151610cb28882610c55565b9750610cbd83610c6d565b925050600181019050610c9e565b5085935050505092915050565b60006020820190508181036000830152610cf28184610c7a565b905092915050565b610d0381610b88565b8114610d0e57600080fd5b50565b600081359050610d2081610cfa565b92915050565b600060208284031215610d3c57610d3b610bbc565b5b6000610d4a84828501610d11565b91505092915050565b600082825260208201905092915050565b7f41756374696f6e2068617320656e646564000000000000000000000000000000600082015250565b6000610d9a601183610d53565b9150610da582610d64565b602082019050919050565b60006020820190508181036000830152610dc981610d8d565b9050919050565b7f4e487b7100000000000000000000000000000000000000000000000000000000600052601160045260246000fd5b6000610e0a82610b88565b9150610e1583610b88565b9250828201905080821115610e2d57610e2c610dd0565b5b92915050565b7f4f6e6c79206f776e65722063616e2063616c6c20746869732066756e6374696f60008201527f6e00000000000000000000000000000000000000000000000000000000000000602082015250565b6000610e8f602183610d53565b9150610e9a82610e33565b604082019050919050565b60006020820190508181036000830152610ebe81610e82565b9050919050565b7f41756374696f6e20686173206e6f7420656e6465642079657400000000000000600082015250565b6000610efb601983610d53565b9150610f0682610ec5565b602082019050919050565b60006020820190508181036000830152610f2a81610eee565b9050919050565b7f41756374696f6e20616c726561647920656e6465640000000000000000000000600082015250565b6000610f67601583610d53565b9150610f7282610f31565b602082019050919050565b60006020820190508181036000830152610f9681610f5a565b9050919050565b7f4e6f206f6e652070617274696369706174656421000000000000000000000000600082015250565b6000610fd3601483610d53565b9150610fde82610f9d565b602082019050919050565b6000602082019050818103600083015261100281610fc6565b9050919050565b600060408201905061101e6000830185610b28565b61102b6020830184610b92565b939250505056fea26469706673582212205d4c30cee19e37979ad15ecd13dfe593bc0ce24363318afa2e19d1732d9183e364736f6c63430008180033",
  "linkReferences": {},
  "deployedLinkReferences": {}
}