{
  "_format": "hh-sol-artifact-1",
  "contractName": "Auction",
  "sourceName": "contracts/Auction.sol",
  "abi": [
    {
      "inputs": [
        {
          "internalType": "uint256",
          "name": "_biddingTime",
          "type": "uint256"
        },
        {
          "internalType": "address",
          "name": "_owner",
          "type": "address"
        }
      ],
      "stateMutability": "nonpayable",
      "type": "constructor"
    },
    {
      "anonymous": false,
      "inputs": [
        {
          "indexed": false,
          "internalType": "address",
          "name": "winner",
          "type": "address"
        },
        {
          "indexed": false,
          "internalType": "uint256",
          "name": "amount",
          "type": "uint256"
        }
      ],
      "name": "AuctionEnded",
      "type": "event"
    },
    {
      "anonymous": false,
      "inputs": [
        {
          "indexed": true,
          "internalType": "address",
          "name": "bidder",
          "type": "address"
        },
        {
          "indexed": false,
          "internalType": "uint256",
          "name": "amount",
          "type": "uint256"
        }
      ],
      "name": "NewBid",
      "type": "event"
    },
    {
      "inputs": [],
      "name": "bid",
      "outputs": [],
      "stateMutability": "payable",
      "type": "function"
    },
    {
      "inputs": [
        {
          "internalType": "uint256",
          "name": "",
          "type": "uint256"
        }
      ],
      "name": "bidders",
      "outputs": [
        {
          "internalType": "address",
          "name": "",
          "type": "address"
        }
      ],
      "stateMutability": "view",
      "type": "function"
    },
    {
      "inputs": [
        {
          "internalType": "address",
          "name": "",
          "type": "address"
        }
      ],
      "name": "bids",
      "outputs": [
        {
          "internalType": "uint256",
          "name": "",
          "type": "uint256"
        }
      ],
      "stateMutability": "view",
      "type": "function"
    },
    {
      "inputs": [],
      "name": "endAuction",
      "outputs": [],
      "stateMutability": "nonpayable",
      "type": "function"
    },
    {
      "inputs": [],
      "name": "endTime",
      "outputs": [
        {
          "internalType": "uint256",
          "name": "",
          "type": "uint256"
        }
      ],
      "stateMutability": "view",
      "type": "function"
    },
    {
      "inputs": [],
      "name": "ended",
      "outputs": [
        {
          "internalType": "bool",
          "name": "",
          "type": "bool"
        }
      ],
      "stateMutability": "view",
      "type": "function"
    },
    {
      "inputs": [],
      "name": "getBidders",
      "outputs": [
        {
          "internalType": "address[]",
          "name": "",
          "type": "address[]"
        }
      ],
      "stateMutability": "view",
      "type": "function"
    },
    {
      "inputs": [],
      "name": "getLastBidder",
      "outputs": [
        {
          "internalType": "address",
          "name": "",
          "type": "address"
        }
      ],
      "stateMutability": "view",
      "type": "function"
    },
    {
      "inputs": [],
      "name": "getOwner",
      "outputs": [
        {
          "internalType": "address",
          "name": "",
          "type": "address"
        }
      ],
      "stateMutability": "view",
      "type": "function"
    },
    {
      "inputs": [],
      "name": "lastBidder",
      "outputs": [
        {
          "internalType": "address",
          "name": "",
          "type": "address"
        }
      ],
      "stateMutability": "view",
      "type": "function"
    },
    {
      "inputs": [],
      "name": "owner",
      "outputs": [
        {
          "internalType": "address",
          "name": "",
          "type": "address"
        }
      ],
      "stateMutability": "view",
      "type": "function"
    }
  ],
  "bytecode": "0x60806040523480156200001157600080fd5b506040516200118838038062001188833981810160405281019062000037919062000138565b806000806101000a81548173ffffffffffffffffffffffffffffffffffffffff021916908373ffffffffffffffffffffffffffffffffffffffff1602179055508142620000859190620001ae565b6003819055505050620001e9565b600080fd5b6000819050919050565b620000ad8162000098565b8114620000b957600080fd5b50565b600081519050620000cd81620000a2565b92915050565b600073ffffffffffffffffffffffffffffffffffffffff82169050919050565b60006200010082620000d3565b9050919050565b6200011281620000f3565b81146200011e57600080fd5b50565b600081519050620001328162000107565b92915050565b6000806040838503121562000152576200015162000093565b5b60006200016285828601620000bc565b9250506020620001758582860162000121565b9150509250929050565b7f4e487b7100000000000000000000000000000000000000000000000000000000600052601160045260246000fd5b6000620001bb8262000098565b9150620001c88362000098565b9250828201905080821115620001e357620001e26200017f565b5b92915050565b610f8f80620001f96000396000f3fe60806040526004361061009c5760003560e01c80638547af30116100645780638547af3014610169578063893d20e8146101945780638da5cb5b146101bf578063cb6632ef146101ea578063cff29dfd14610215578063fe67a54b146102525761009c565b80630fbe333a146100a157806312fa6feb146100cc5780631998aeef146100f75780633197cbb61461010157806362ea82db1461012c575b600080fd5b3480156100ad57600080fd5b506100b6610269565b6040516100c39190610ac1565b60405180910390f35b3480156100d857600080fd5b506100e1610293565b6040516100ee9190610af7565b60405180910390f35b6100ff6102a6565b005b34801561010d57600080fd5b50610116610616565b6040516101239190610b2b565b60405180910390f35b34801561013857600080fd5b50610153600480360381019061014e9190610b77565b61061c565b6040516101609190610b2b565b60405180910390f35b34801561017557600080fd5b5061017e610634565b60405161018b9190610ac1565b60405180910390f35b3480156101a057600080fd5b506101a961065a565b6040516101b69190610ac1565b60405180910390f35b3480156101cb57600080fd5b506101d4610683565b6040516101e19190610ac1565b60405180910390f35b3480156101f657600080fd5b506101ff6106a7565b60405161020c9190610c62565b60405180910390f35b34801561022157600080fd5b5061023c60048036038101906102379190610cb0565b610735565b6040516102499190610ac1565b60405180910390f35b34801561025e57600080fd5b50610267610774565b005b6000600460019054906101000a900473ffffffffffffffffffffffffffffffffffffffff16905090565b600460009054906101000a900460ff1681565b60035442106102ea576040517f08c379a00000000000000000000000000000000000000000000000000000000081526004016102e190610d3a565b60405180910390fd5b6000600160003373ffffffffffffffffffffffffffffffffffffffff1673ffffffffffffffffffffffffffffffffffffffff1681526020019081526020016000205403610399576002339080600181540180825580915050600190039060005260206000200160009091909190916101000a81548173ffffffffffffffffffffffffffffffffffffffff021916908373ffffffffffffffffffffffffffffffffffffffff160217905550610420565b3373ffffffffffffffffffffffffffffffffffffffff166108fc600160003373ffffffffffffffffffffffffffffffffffffffff1673ffffffffffffffffffffffffffffffffffffffff168152602001908152602001600020549081150290604051600060405180830381858888f1935050505015801561041e573d6000803e3d6000fd5b505b600073ffffffffffffffffffffffffffffffffffffffff16600460019054906101000a900473ffffffffffffffffffffffffffffffffffffffff1673ffffffffffffffffffffffffffffffffffffffff161461054157600460019054906101000a900473ffffffffffffffffffffffffffffffffffffffff1673ffffffffffffffffffffffffffffffffffffffff166108fc60016000600460019054906101000a900473ffffffffffffffffffffffffffffffffffffffff1673ffffffffffffffffffffffffffffffffffffffff1673ffffffffffffffffffffffffffffffffffffffff168152602001908152602001600020549081150290604051600060405180830381858888f1935050505015801561053f573d6000803e3d6000fd5b505b34600160003373ffffffffffffffffffffffffffffffffffffffff1673ffffffffffffffffffffffffffffffffffffffff1681526020019081526020016000208190555033600460016101000a81548173ffffffffffffffffffffffffffffffffffffffff021916908373ffffffffffffffffffffffffffffffffffffffff1602179055503373ffffffffffffffffffffffffffffffffffffffff167fdd0b6c6a77960e2066c96171b4d7ac9e8b4c184011f38544afa36a5bb63ec59f3460405161060c9190610b2b565b60405180910390a2565b60035481565b60016020528060005260406000206000915090505481565b600460019054906101000a900473ffffffffffffffffffffffffffffffffffffffff1681565b60008060009054906101000a900473ffffffffffffffffffffffffffffffffffffffff16905090565b60008054906101000a900473ffffffffffffffffffffffffffffffffffffffff1681565b6060600280548060200260200160405190810160405280929190818152602001828054801561072b57602002820191906000526020600020905b8160009054906101000a900473ffffffffffffffffffffffffffffffffffffffff1673ffffffffffffffffffffffffffffffffffffffff16815260200190600101908083116106e1575b5050505050905090565b6002818154811061074557600080fd5b906000526020600020016000915054906101000a900473ffffffffffffffffffffffffffffffffffffffff1681565b60008054906101000a900473ffffffffffffffffffffffffffffffffffffffff1673ffffffffffffffffffffffffffffffffffffffff163373ffffffffffffffffffffffffffffffffffffffff1614610802576040517f08c379a00000000000000000000000000000000000000000000000000000000081526004016107f990610dcc565b60405180910390fd5b600354421015610847576040517f08c379a000000000000000000000000000000000000000000000000000000000815260040161083e90610e38565b60405180910390fd5b600460009054906101000a900460ff1615610897576040517f08c379a000000000000000000000000000000000000000000000000000000000815260040161088e90610ea4565b60405180910390fd5b6000600280549050116108df576040517f08c379a00000000000000000000000000000000000000000000000000000000081526004016108d690610f10565b60405180910390fd5b6001600460006101000a81548160ff02191690831515021790555060008054906101000a900473ffffffffffffffffffffffffffffffffffffffff1673ffffffffffffffffffffffffffffffffffffffff166108fc60016000600460019054906101000a900473ffffffffffffffffffffffffffffffffffffffff1673ffffffffffffffffffffffffffffffffffffffff1673ffffffffffffffffffffffffffffffffffffffff168152602001908152602001600020549081150290604051600060405180830381858888f193505050501580156109c1573d6000803e3d6000fd5b507fdaec4582d5d9595688c8c98545fdd1c696d41c6aeaeb636737e84ed2f5c00eda600460019054906101000a900473ffffffffffffffffffffffffffffffffffffffff1660016000600460019054906101000a900473ffffffffffffffffffffffffffffffffffffffff1673ffffffffffffffffffffffffffffffffffffffff1673ffffffffffffffffffffffffffffffffffffffff16815260200190815260200160002054604051610a76929190610f30565b60405180910390a1565b600073ffffffffffffffffffffffffffffffffffffffff82169050919050565b6000610aab82610a80565b9050919050565b610abb81610aa0565b82525050565b6000602082019050610ad66000830184610ab2565b92915050565b60008115159050919050565b610af181610adc565b82525050565b6000602082019050610b0c6000830184610ae8565b92915050565b6000819050919050565b610b2581610b12565b82525050565b6000602082019050610b406000830184610b1c565b92915050565b600080fd5b610b5481610aa0565b8114610b5f57600080fd5b50565b600081359050610b7181610b4b565b92915050565b600060208284031215610b8d57610b8c610b46565b5b6000610b9b84828501610b62565b91505092915050565b600081519050919050565b600082825260208201905092915050565b6000819050602082019050919050565b610bd981610aa0565b82525050565b6000610beb8383610bd0565b60208301905092915050565b6000602082019050919050565b6000610c0f82610ba4565b610c198185610baf565b9350610c2483610bc0565b8060005b83811015610c55578151610c3c8882610bdf565b9750610c4783610bf7565b925050600181019050610c28565b5085935050505092915050565b60006020820190508181036000830152610c7c8184610c04565b905092915050565b610c8d81610b12565b8114610c9857600080fd5b50565b600081359050610caa81610c84565b92915050565b600060208284031215610cc657610cc5610b46565b5b6000610cd484828501610c9b565b91505092915050565b600082825260208201905092915050565b7f41756374696f6e2068617320656e646564000000000000000000000000000000600082015250565b6000610d24601183610cdd565b9150610d2f82610cee565b602082019050919050565b60006020820190508181036000830152610d5381610d17565b9050919050565b7f4f6e6c79206f776e65722063616e2063616c6c20746869732066756e6374696f60008201527f6e00000000000000000000000000000000000000000000000000000000000000602082015250565b6000610db6602183610cdd565b9150610dc182610d5a565b604082019050919050565b60006020820190508181036000830152610de581610da9565b9050919050565b7f41756374696f6e20686173206e6f7420656e6465642079657400000000000000600082015250565b6000610e22601983610cdd565b9150610e2d82610dec565b602082019050919050565b60006020820190508181036000830152610e5181610e15565b9050919050565b7f41756374696f6e20616c726561647920656e6465640000000000000000000000600082015250565b6000610e8e601583610cdd565b9150610e9982610e58565b602082019050919050565b60006020820190508181036000830152610ebd81610e81565b9050919050565b7f4e6f206f6e652070617274696369706174656421000000000000000000000000600082015250565b6000610efa601483610cdd565b9150610f0582610ec4565b602082019050919050565b60006020820190508181036000830152610f2981610eed565b9050919050565b6000604082019050610f456000830185610ab2565b610f526020830184610b1c565b939250505056fea26469706673582212205f388a2fe223c68abafcdd6ccb85dd0cab1dabac4b4e8ba39c9ceb79829bd40464736f6c63430008180033",
  "linkReferences": {},
  "deployedLinkReferences": {}
}